{
  "contractName": "Election",
  "abi": [
    {
      "anonymous": false,
      "inputs": [
        {
          "indexed": false,
          "internalType": "uint16",
          "name": "vote",
          "type": "uint16"
        }
      ],
      "name": "voteAccepted",
      "type": "event"
    },
    {
      "inputs": [
        {
          "internalType": "uint16",
          "name": "",
          "type": "uint16"
        }
      ],
      "name": "cadidateById",
      "outputs": [
        {
          "internalType": "string",
          "name": "",
          "type": "string"
        }
      ],
      "stateMutability": "view",
      "type": "function"
    },
    {
      "inputs": [
        {
          "internalType": "uint16",
          "name": "idnp",
          "type": "uint16"
        }
      ],
      "name": "pasVote",
      "outputs": [
        {
          "internalType": "uint16",
          "name": "",
          "type": "uint16"
        }
      ],
      "stateMutability": "nonpayable",
      "type": "function"
    },
    {
      "inputs": [
        {
          "internalType": "uint16",
          "name": "_idnp",
          "type": "uint16"
        }
      ],
      "name": "pdmVote",
      "outputs": [
        {
          "internalType": "uint16",
          "name": "",
          "type": "uint16"
        }
      ],
      "stateMutability": "nonpayable",
      "type": "function"
    },
    {
      "inputs": [
        {
          "internalType": "uint16",
          "name": "_idnp",
          "type": "uint16"
        }
      ],
      "name": "psrmVote",
      "outputs": [
        {
          "internalType": "uint16",
          "name": "",
          "type": "uint16"
        }
      ],
      "stateMutability": "nonpayable",
      "type": "function"
    },
    {
      "inputs": [
        {
          "internalType": "uint16",
          "name": "_idnp",
          "type": "uint16"
        }
      ],
      "name": "pcrmVote",
      "outputs": [
        {
          "internalType": "uint16",
          "name": "",
          "type": "uint16"
        }
      ],
      "stateMutability": "nonpayable",
      "type": "function"
    },
    {
      "inputs": [
        {
          "internalType": "uint16",
          "name": "_idnp",
          "type": "uint16"
        }
      ],
      "name": "voteRegistering",
      "outputs": [],
      "stateMutability": "nonpayable",
      "type": "function"
    },
    {
      "inputs": [],
      "name": "getResult",
      "outputs": [
        {
          "internalType": "uint16[4]",
          "name": "",
          "type": "uint16[4]"
        }
      ],
      "stateMutability": "view",
      "type": "function"
    },
    {
      "inputs": [
        {
          "internalType": "uint16",
          "name": "id",
          "type": "uint16"
        }
      ],
      "name": "getCandidateById",
      "outputs": [
        {
          "internalType": "string",
          "name": "",
          "type": "string"
        }
      ],
      "stateMutability": "view",
      "type": "function"
    },
    {
      "inputs": [
        {
          "internalType": "uint16",
          "name": "_idnp",
          "type": "uint16"
        },
        {
          "internalType": "address",
          "name": "_client",
          "type": "address"
        }
      ],
      "name": "addAdress",
      "outputs": [],
      "stateMutability": "nonpayable",
      "type": "function"
    },
    {
      "inputs": [
        {
          "internalType": "address",
          "name": "_newOwner",
          "type": "address"
        }
      ],
      "name": "changeOwner",
      "outputs": [],
      "stateMutability": "nonpayable",
      "type": "function"
    },
    {
      "inputs": [
        {
          "internalType": "uint16",
          "name": "_idnp",
          "type": "uint16"
        }
      ],
      "name": "resetVoteForId",
      "outputs": [],
      "stateMutability": "nonpayable",
      "type": "function"
    }
  ],
  "bytecode": "0x60806040526202a3004261001391906100d4565b600055731287f26179d27ddd83c48a24d12c26e73a13eed6600160006101000a81548173ffffffffffffffffffffffffffffffffffffffff021916908373ffffffffffffffffffffffffffffffffffffffff1602179055506000600160146101000a81548161ffff021916908361ffff16021790555034801561009557600080fd5b5061012a565b6000819050919050565b7f4e487b7100000000000000000000000000000000000000000000000000000000600052601160045260246000fd5b60006100df8261009b565b91506100ea8361009b565b9250827fffffffffffffffffffffffffffffffffffffffffffffffffffffffffffffffff0382111561011f5761011e6100a5565b5b828201905092915050565b61132f806101396000396000f3fe608060405234801561001057600080fd5b50600436106100a95760003560e01c80638b7fa6e4116100715780638b7fa6e4146101625780639f7a4d8f14610192578063a6f9dae1146101c2578063af1e6e77146101de578063c435551c1461020e578063de2927891461023e576100a9565b806306422714146100ae57806316287299146100ca5780633c813099146100e65780635b0a5af3146101165780637115ae1914610132575b600080fd5b6100c860048036038101906100c39190610f6c565b61025c565b005b6100e460048036038101906100df9190610ff7565b610293565b005b61010060048036038101906100fb9190610f6c565b61034b565b60405161010d9190611046565b60405180910390f35b610130600480360381019061012b9190610f6c565b61054e565b005b61014c60048036038101906101479190610f6c565b6105df565b6040516101599190611046565b60405180910390f35b61017c60048036038101906101779190610f6c565b6107ae565b6040516101899190611046565b60405180910390f35b6101ac60048036038101906101a79190610f6c565b6109b1565b6040516101b991906110fa565b60405180910390f35b6101dc60048036038101906101d7919061111c565b610a51565b005b6101f860048036038101906101f39190610f6c565b610aef565b60405161020591906110fa565b60405180910390f35b61022860048036038101906102239190610f6c565b610b9c565b6040516102359190611046565b60405180910390f35b610246610d65565b60405161025391906111f4565b60405180910390f35b6001600460008361ffff1661ffff16815260200190815260200160002060006101000a81548160ff02191690831515021790555050565b600160009054906101000a900473ffffffffffffffffffffffffffffffffffffffff1673ffffffffffffffffffffffffffffffffffffffff163373ffffffffffffffffffffffffffffffffffffffff16146102ed57600080fd5b80600360008461ffff1661ffff16815260200190815260200160002060006101000a81548173ffffffffffffffffffffffffffffffffffffffff021916908373ffffffffffffffffffffffffffffffffffffffff1602179055505050565b600081600460008261ffff1661ffff16815260200190815260200160002060009054906101000a900460ff161561038157600080fd5b600054421061038f57600080fd5b823373ffffffffffffffffffffffffffffffffffffffff16600360008361ffff1661ffff16815260200190815260200160002060009054906101000a900473ffffffffffffffffffffffffffffffffffffffff1673ffffffffffffffffffffffffffffffffffffffff161461040357600080fd5b6002600001600281819054906101000a900461ffff16809291906104269061123e565b91906101000a81548161ffff021916908361ffff160217905550506001601481819054906101000a900461ffff16809291906104619061123e565b91906101000a81548161ffff021916908361ffff160217905550506000600160149054906101000a900461ffff1690506040518060400160405280600381526020017f504153000000000000000000000000000000000000000000000000000000000081525060056000600160149054906101000a900461ffff1661ffff1661ffff1681526020019081526020016000209080519060200190610505929190610e68565b5061050f8561025c565b7fe063833c31d6f8036377c0284594de671bb604d87ac8748924924881a27e50a58160405161053e9190611046565b60405180910390a1505050919050565b600160009054906101000a900473ffffffffffffffffffffffffffffffffffffffff1673ffffffffffffffffffffffffffffffffffffffff163373ffffffffffffffffffffffffffffffffffffffff16146105a857600080fd5b6000600460008361ffff1661ffff16815260200190815260200160002060006101000a81548160ff02191690831515021790555050565b600081600460008261ffff1661ffff16815260200190815260200160002060009054906101000a900460ff161561061557600080fd5b600054421061062357600080fd5b823373ffffffffffffffffffffffffffffffffffffffff16600360008361ffff1661ffff16815260200190815260200160002060009054906101000a900473ffffffffffffffffffffffffffffffffffffffff1673ffffffffffffffffffffffffffffffffffffffff161461069757600080fd5b6002600001600681819054906101000a900461ffff16809291906106ba9061123e565b91906101000a81548161ffff021916908361ffff160217905550506001601481819054906101000a900461ffff16809291906106f59061123e565b91906101000a81548161ffff021916908361ffff160217905550506000600160149054906101000a900461ffff1690506040518060400160405280600481526020017f5053524d0000000000000000000000000000000000000000000000000000000081525060056000600160149054906101000a900461ffff1661ffff1661ffff1681526020019081526020016000209080519060200190610799929190610e68565b506107a38561025c565b809350505050919050565b600081600460008261ffff1661ffff16815260200190815260200160002060009054906101000a900460ff16156107e457600080fd5b60005442106107f257600080fd5b823373ffffffffffffffffffffffffffffffffffffffff16600360008361ffff1661ffff16815260200190815260200160002060009054906101000a900473ffffffffffffffffffffffffffffffffffffffff1673ffffffffffffffffffffffffffffffffffffffff161461086657600080fd5b6002600001600081819054906101000a900461ffff16809291906108899061123e565b91906101000a81548161ffff021916908361ffff160217905550506001601481819054906101000a900461ffff16809291906108c49061123e565b91906101000a81548161ffff021916908361ffff160217905550506040518060400160405280600381526020017f50444d000000000000000000000000000000000000000000000000000000000081525060056000600160149054906101000a900461ffff1661ffff1661ffff1681526020019081526020016000209080519060200190610953929190610e68565b5061095d8461025c565b6000600160149054906101000a900461ffff1690507fe063833c31d6f8036377c0284594de671bb604d87ac8748924924881a27e50a5816040516109a19190611046565b60405180910390a1505050919050565b600560205280600052604060002060009150905080546109d090611298565b80601f01602080910402602001604051908101604052809291908181526020018280546109fc90611298565b8015610a495780601f10610a1e57610100808354040283529160200191610a49565b820191906000526020600020905b815481529060010190602001808311610a2c57829003601f168201915b505050505081565b600160009054906101000a900473ffffffffffffffffffffffffffffffffffffffff1673ffffffffffffffffffffffffffffffffffffffff163373ffffffffffffffffffffffffffffffffffffffff1614610aab57600080fd5b80600160006101000a81548173ffffffffffffffffffffffffffffffffffffffff021916908373ffffffffffffffffffffffffffffffffffffffff16021790555050565b6060600560008361ffff1661ffff1681526020019081526020016000208054610b1790611298565b80601f0160208091040260200160405190810160405280929190818152602001828054610b4390611298565b8015610b905780601f10610b6557610100808354040283529160200191610b90565b820191906000526020600020905b815481529060010190602001808311610b7357829003601f168201915b50505050509050919050565b600081600460008261ffff1661ffff16815260200190815260200160002060009054906101000a900460ff1615610bd257600080fd5b6000544210610be057600080fd5b823373ffffffffffffffffffffffffffffffffffffffff16600360008361ffff1661ffff16815260200190815260200160002060009054906101000a900473ffffffffffffffffffffffffffffffffffffffff1673ffffffffffffffffffffffffffffffffffffffff1614610c5457600080fd5b6002600001600481819054906101000a900461ffff1680929190610c779061123e565b91906101000a81548161ffff021916908361ffff160217905550506001601481819054906101000a900461ffff1680929190610cb29061123e565b91906101000a81548161ffff021916908361ffff160217905550506040518060400160405280600481526020017f5043524d0000000000000000000000000000000000000000000000000000000081525060056000600160149054906101000a900461ffff1661ffff1661ffff1681526020019081526020016000209080519060200190610d41929190610e68565b50610d4b8461025c565b600160149054906101000a900461ffff1692505050919050565b610d6d610eee565b610d75610eee565b600260000160029054906101000a900461ffff1681600060048110610d9d57610d9c6112ca565b5b602002019061ffff16908161ffff1681525050600260000160049054906101000a900461ffff1681600160048110610dd857610dd76112ca565b5b602002019061ffff16908161ffff1681525050600260000160069054906101000a900461ffff1681600260048110610e1357610e126112ca565b5b602002019061ffff16908161ffff1681525050600260000160009054906101000a900461ffff1681600360048110610e4e57610e4d6112ca565b5b602002019061ffff16908161ffff16815250508091505090565b828054610e7490611298565b90600052602060002090601f016020900481019282610e965760008555610edd565b82601f10610eaf57805160ff1916838001178555610edd565b82800160010185558215610edd579182015b82811115610edc578251825591602001919060010190610ec1565b5b509050610eea9190610f10565b5090565b6040518060800160405280600490602082028036833780820191505090505090565b5b80821115610f29576000816000905550600101610f11565b5090565b600080fd5b600061ffff82169050919050565b610f4981610f32565b8114610f5457600080fd5b50565b600081359050610f6681610f40565b92915050565b600060208284031215610f8257610f81610f2d565b5b6000610f9084828501610f57565b91505092915050565b600073ffffffffffffffffffffffffffffffffffffffff82169050919050565b6000610fc482610f99565b9050919050565b610fd481610fb9565b8114610fdf57600080fd5b50565b600081359050610ff181610fcb565b92915050565b6000806040838503121561100e5761100d610f2d565b5b600061101c85828601610f57565b925050602061102d85828601610fe2565b9150509250929050565b61104081610f32565b82525050565b600060208201905061105b6000830184611037565b92915050565b600081519050919050565b600082825260208201905092915050565b60005b8381101561109b578082015181840152602081019050611080565b838111156110aa576000848401525b50505050565b6000601f19601f8301169050919050565b60006110cc82611061565b6110d6818561106c565b93506110e681856020860161107d565b6110ef816110b0565b840191505092915050565b6000602082019050818103600083015261111481846110c1565b905092915050565b60006020828403121561113257611131610f2d565b5b600061114084828501610fe2565b91505092915050565b600060049050919050565b600081905092915050565b6000819050919050565b61117281610f32565b82525050565b60006111848383611169565b60208301905092915050565b6000602082019050919050565b6111a681611149565b6111b08184611154565b92506111bb8261115f565b8060005b838110156111ec5781516111d38782611178565b96506111de83611190565b9250506001810190506111bf565b505050505050565b6000608082019050611209600083018461119d565b92915050565b7f4e487b7100000000000000000000000000000000000000000000000000000000600052601160045260246000fd5b600061124982610f32565b915061ffff82141561125e5761125d61120f565b5b600182019050919050565b7f4e487b7100000000000000000000000000000000000000000000000000000000600052602260045260246000fd5b600060028204905060018216806112b057607f821691505b602082108114156112c4576112c3611269565b5b50919050565b7f4e487b7100000000000000000000000000000000000000000000000000000000600052603260045260246000fdfea2646970667358221220ba06b1cb6f87e54640d1543fb16d32cf380a70d64c084203c30813db36c50bf864736f6c634300080c0033",
  "immutableReferences": {},
  "source": "\r\npragma solidity >=0.4.22 <0.9.0;\r\n\r\ncontract Election {\r\n\r\n    //Evation End Time\r\n    uint256 timePointToEnd = block.timestamp+(60*60*24*2);\r\n\r\n    // constructor() public {\r\n    //   timePointToEnd = uint32(block.timestamp+(60*60*24*2));   \r\n    // }\r\n\r\n    //predetermined address\r\n    address owner = 0x1287f26179d27DDd83c48A24d12c26e73a13eeD6;\r\n    \r\n    event voteAccepted(uint16 vote);\r\n    uint16 voteId = 0;\r\n\r\n    struct candidate{\r\n        uint16 PDM;\r\n        uint16 PAS;\r\n        uint16 PCRM;\r\n        uint16 PSRM;\r\n    }\r\n\r\n    candidate result;\r\n    mapping (uint16 => address) private idnpToAdress;\r\n    mapping (uint16 => bool) internal ifVoted;\r\n    mapping (uint16 => string) public cadidateById;\r\n\r\n\r\n\r\n\r\n    //Modifiers\r\n    modifier ownerCheck(){\r\n        require(msg.sender == owner);\r\n        _;\r\n    }\r\n\r\n    modifier checkClientAdress(uint16 _idnp){\r\n        require(idnpToAdress[_idnp] == msg.sender);\r\n        _;\r\n    }\r\n\r\n    modifier checkIfVoted(uint16 _idnp) {\r\n        require(!ifVoted[_idnp]);\r\n        _;\r\n    }\r\n\r\n    modifier checkTimeLimit() {\r\n        require(block.timestamp<timePointToEnd);\r\n        _;\r\n    }\r\n\r\n    //Vote Functions feDone\r\n    //checkIfVoted(_idnp) checkTimeLimit() checkClientAdress(_idnp)\r\n    function pasVote(uint16 idnp) public checkIfVoted(idnp) checkTimeLimit() checkClientAdress(idnp) returns(uint16)  {\r\n        result.PAS++;\r\n        voteId++;\r\n        uint16 _voteId = voteId;\r\n        cadidateById[voteId] = \"PAS\";\r\n        voteRegistering(idnp);\r\n        emit voteAccepted(_voteId);\r\n    }\r\n\r\n    function pdmVote(uint16 _idnp) public checkIfVoted(_idnp) checkTimeLimit() checkClientAdress(_idnp) returns(uint16)  {\r\n        result.PDM++;\r\n        voteId++;\r\n        cadidateById[voteId] = \"PDM\";\r\n        voteRegistering(_idnp);\r\n        uint16 _voteId = voteId;\r\n        emit voteAccepted(_voteId);\r\n    }\r\n\r\n    function psrmVote(uint16 _idnp) public checkIfVoted(_idnp) checkTimeLimit() checkClientAdress(_idnp) returns(uint16)  {\r\n        result.PSRM++;\r\n        voteId++;\r\n        uint16 _voteId = voteId;\r\n        cadidateById[voteId] = \"PSRM\";\r\n        voteRegistering(_idnp);\r\n        return _voteId;\r\n    }\r\n\r\n    function pcrmVote(uint16 _idnp) public checkIfVoted(_idnp) checkTimeLimit() checkClientAdress(_idnp) returns(uint16)  {\r\n        result.PCRM++;\r\n        voteId++;\r\n        cadidateById[voteId] = \"PCRM\";\r\n        voteRegistering(_idnp);\r\n        return voteId;\r\n    }\r\n\r\n    function voteRegistering(uint16 _idnp) public {\r\n        ifVoted[_idnp] = true;\r\n    }\r\n    \r\n    //fe\r\n    function getResult() public view returns(uint16[4] memory){\r\n        uint16[4] memory res;\r\n        res[0] = result.PAS;\r\n        res[1] = result.PCRM;\r\n        res[2] = result.PSRM;\r\n        res[3] = result.PDM;\r\n        return res;\r\n    }\r\n\r\n    function getCandidateById(uint16 id) public view returns(string memory){\r\n        return cadidateById[id];\r\n    }\r\n\r\n    //Admin Panel For Test\r\n    function addAdress(uint16 _idnp, address _client) public ownerCheck {\r\n        idnpToAdress[_idnp] = _client;\r\n    }\r\n\r\n    function changeOwner(address _newOwner) public ownerCheck {\r\n        owner = _newOwner;\r\n    }\r\n\r\n    function resetVoteForId(uint16 _idnp) public ownerCheck {\r\n        ifVoted[_idnp] = false;\r\n    }\r\n}\r\n",
  "sourcePath": "C:\\Users\\user\\Licenca\\OnlineElection\\contracts\\Elections.sol",
  "compiler": {
    "name": "solc",
    "version": "0.8.12+commit.f00d7308.Emscripten.clang"
  },
  "schemaVersion": "3.4.6",
  "updatedAt": "2022-03-18T22:19:50.981Z",
  "devdoc": {
    "kind": "dev",
    "methods": {},
    "version": 1
  },
  "userdoc": {
    "kind": "user",
    "methods": {},
    "version": 1
  }
}